:02000000D729FE
:0400060000000800EE
:10000A00083083120313FC002330FD00FD0B0B287C
:06001A00FC0B0B2808009E
:10002000103083120313FD00FD0B1428000008009C
:1000300083120313E71B1E2886111F288615671BD2
:100040002328061124280615E71A282886102928AF
:100050008614671A2D2806102E28061456183228E2
:10006000861633288612061603200612E7193A2848
:1000700086113B28861567193F280611402806156A
:10008000E718442886104528861467184928061062
:100090004A28061456184E2886164F288612061629
:1000A00003200612561C5628052057281020080049
:0E00B0008312031351088A00500882000800D2
:1000BE008312031356106608E70018205614080022
:1000CE0083160313981690308312980083168717A1
:1000DE00071383128C1E76281A08F0007028080069
:1000EE0058208A110A128000840AD00A0319D10AF4
:0800FE00F003031D7728080040
:100106009528803083120313E200A828C030E2004D
:10011600A8289430E200A828D430E200A82880302D
:10012600E200A828831203136208013A03198428FF
:100136006208023A031989286208033A03198C28CF
:100146006208043A03198F2892286303F0006208B4
:10015600F0077008E2007008E70018205610E50165
:1001660065086407840000080319C1286508640748
:1001760084000008E6005F20E50AB328561408004C
:10018600831603130810831208101830FC005F3022
:10019600FD00FD0BCC28FC0BCC2808140930FD0013
:0E01A600FD0BD328000000008316081408008B
:1001B40083120313F3010830730203181329081878
:1001C400E428E1280930FD00FD0BE62800000000CA
:1001D4000818FE287308073CF0007008F10001308D
:1001E400F00071080319FA28F00D7010FF3EF4288E
:1001F400F0097008F20511297308073CF000700833
:10020400F1000130F000710803190C29F00D701091
:10021400FF3E06297008F204081C11290E29F30A6E
:08022400DD287208F00008005B
:10022C008316031398181C290000162983126208E0
:04023C00990008001D
:100240003229803083120313E2004529C030E200D6
:1002500045299430E2004529D430E2004529803018
:10026000E2004529831203136208013A0319212988
:100270006208023A031926296208033A0319292958
:100280006208043A03192C292F296303F00062083D
:10029000F0077008E20056147008E70018205610A6
:0A02A0006408E70018205614080057
:1002AA0083120313F801F9011030FC00710DF80DE7
:1002BA00F90D7408F8027508031C750FF902031882
:1002CA006D297408F80775080318750FF9070310E4
:0A02DA00F00DF10DFC0B5B2908008C
:1002E40083120313CE010D30FD00FD0B772908188E
:1002F40088291A30FD00FD0B7D290000081C842983
:0E0304000130CE000D30FD00FD0B86290800F3
:100312008316031306128612061086100611861122
:100322008312061286128611061186100610052007
:100332000520052086140614061603200612052041
:1003420006160320061205200616032006120520B3
:1003520006100616032006120520061603200612B2
:10036200861086150616032006120520861106142D
:100372000616032006120610061603200612052092
:10038200061603200612061406160320061205207E
:100392000610061603200612861506158614061484
:0C03A20006160320061205205614080061
:1003AE00562383160313881089210C30E70018207A
:1003BE000130E700182019308316990018156720B0
:1003CE000630FB001330FC00AD30FD00FD0BED29B7
:1003DE00FC0BED29FB0BED2900000000E001E10113
:1003EE00C32072214E08013A031D122BDA20700829
:1003FE00CF00DA207008DA00DA207008D900DA208F
:10040E007008DB00DA207008DE00DF015A084F07A3
:10041E00F000F1010318F10A5908F0070318F10A68
:10042E005B08F0070318F10AFF307005F20071083F
:10043E00F3000030F3055F087306031D282A7208C7
:10044E005E06031D042B5908DC00DD014F08D700A2
:10045E00D8010130E2000130E3002F30E4008320A8
:10046E000230E2000130E3002030E400832001304E
:10047E00E2000B30E3000A30F4000030F5005C08B7
:10048E00F0005D08F10055210A30F4000030F5004F
:10049E0055217808F0007908F1007008303EE4002C
:1004AE0020210130E2000C30E3000A30F40000306D
:1004BE00F5005C08F0005D08F10055217808F000A9
:1004CE007908F1007008303EE40020210230E2008D
:1004DE000B30E3000A30F4000030F5005708F0004E
:1004EE005808F10055210A30F4000030F50055216E
:1004FE007808F0007908F1007008303EE400202101
:10050E000230E2000C30E3000A30F4000030F50057
:10051E005708F0005808F10055217808F0007908C6
:10052E00F1007008303EE40020210A30F400003063
:10053E00F5005C08F0005D08F10055210A30F4006A
:10054E000030F50055217808F0007908F1007008A8
:10055E00303ED2000A30F4000030F5005C08F000A6
:10056E005D08F10055217808F0007908F100700857
:10057E00303ED3000A30F4000030F5005708F0008A
:10058E005808F10055210A30F4000030F5005521CD
:10059E007808F0007908F1007008303ED4000A3077
:1005AE00F4000030F5005708F0005808F10055210E
:1005BE007808F0007908F1007008303ED500E001AF
:1005CE00E10180306106F00080307002031DF12AD7
:1005DE00043060020318FD2A6008523E84000008B1
:1005EE00E2001621E00A0319E10AE82A0D30E200C2
:1005FE0016210A30E2001621112B0C30E7001820CC
:10060E000130E70018200130E2000130E3003E30F7
:10061E00E4008320122B3330FB00BB30FC00DF30B4
:10062E00FD00FD0B182BFC0B182BFB0B182B0000E1
:06063E000000F529212B4C
:1006AC00203084002E3083120313F0002730D0004A
:0806BC000330D1007720080093
:10064E00483475346D3469346434693474347934AF
:0E065E003A3420342034203420342534003443
:10066C00543465346D3470343A34203420342034AE
:0E067C00203420342034203420344334003421
:10068A0043346834653463346B34203473347534DA
:10069A006D3420346534723472346F3472340034F9
:02400E004A2F37
:00000001FF
